S015000047617465436F6E74726F6C6C65722E6D6F74C7
S1070000292BFFFFA6
S1130004F422F422F422F422F422F422F422F42238
S1130014F422F422F422F422F422F422F422F42228
S1130024ED161916F422F4227F228B229A22A92295
S1130034640BF422F422F422F422F422F422F422AF
S1130044F422F422F422F4225C0FF422F422F422A3
S1130054F422E822F422F422F422F422F422F422F4
S1130064F422F422F422F422F422F422F422F422D8
S10F0074F422F422F422F422F422F422F8
S10700C0EFFFE984DD
S10D00C4000000000000000000002E
S10700D837350200B2
S11300DC61EFC161CF8F00E99DE8D4E861F8EC12BF
S11300EC02008F01E99DE8D4E861F8EC0202008F6C
S11300FC01E99DE8CDE900A6E88DE85C039DF68D49
S113010CE95C009DF7ADF644000061E8EC460100A3
S113011CC9F60EFFADF6BDE8FAE88B9DF6311A9DD3
S113012CF65AF6018DF69DF78F02E99DF68DF76B65
S113013CF69DF661019DF69F02E98F01E99DF6CDCE
S113014CF700B6F68DF65C039DF48DF75C009DF517
S113015CADF444000061E8ECF60100C9F40EFFAD07
S113016CF4BDF6FAF68B9DF4311A9DF45AF4018D14
S113017CF49DF58F02E99DF48DF56BF49DF49F02CB
S113018CE98F02E99DF4D4F461F8ECA801008F0224
S113019CE99DF44AF40361F8ECF301008F02E99D44
S11301ACF4CDF5008DF45C029DF28DF55C009DF3AD
S11301BCADF2311FBDF2BDF4AF04E9BDF28DF46BA9
S11301CCF29DF08DF56BF39DF1ADF0BF04E98F0159
S11301DCE99DF04AF00161F8ECF30100AF04E9BDCC
S11301ECF001BDF0BF04E9F502E98F01E99DF0B41B
S11301FCF08DF09F01E98F00E99DF0B4F08DF09F34
S113020C00E9EC3E020051359F01E951379F00E9AA
S113021CAF04E9BDF0BF38E9E53AE9E53CE9E53B73
S113022CE9F6BF04E951029F02E9FCE81E00FCF662
S113023C0E0061EFC061CFD720068F3AE99DF0D450
S113024CF061F8EC9303008F3CE99DF0D4F061F875
S113025CEC930300AF38E9BDF08DF05C079805AF63
S113026C38E9BDF0313EBDF08DF09804AF38E9BDEE
S113027CF031BEBDF08DF05C06980388044C8461AB
S113028CE8EC9003008805705100BDF04402006155
S113029CF8EC080300ADF044030061F8EC590300DA
S11302ACADF044010061E8EC900300AF20E9BDF02F
S11302BC44000061F8ECCE0200308800B800FC9ECB
S11302CC2900C9F004FFADF0BDF4FAF48B9DF25A89
S11302DCF2FDADF0DAF48DF2480000C9F004FFAD84
S11302ECF0BDF4FAF48B9DF26AF204ADF0DAF48DFD
S11302FCF2480000F6BF0AE9EC900300AF20E9BD18
S113030CF044000061F8EC1F0300309000B800FCCE
S113031C9E2900C9F004FFADF0BDF4FAF48B9DF2F4
S113032C6AF202ADF0DAF48DF2480000C9F004FF71
S113033CADF0BDF4FAF48B9DF26AF204ADF0DAF48C
S113034C8DF2480000F6BF0AE9EC900300AF20E9F7
S113035CBDF044000061F8EC700300308400B80078
S113036CFC9E2900C9F004FFADF0BDF4FAF48B9D9A
S113037CF25AF2FBADF0DAF48DF2480000300300CF
S113038CBF0AE900F53CE91006D7C9F0E2FFADF06D
S113039CBDF4FAF48B9DF25AF2EFADF0DAF48DF26F
S11303AC480000C9F218FFA804BDF0ADF2BDF4DAA0
S11303BCF4ADF0780000C9F0B201ADF0BDF2DAF2A0
S11303CCE6780000D72002A806BDF0B800FC96031E
S11303DC00ECE2030000C9F0E2FFADF0BDF2FAF26A
S11303EC8B9DF0314A9DF05AF00161F8ECE1030069
S11303FCFCC61C001002D72006880C314A980588CC
S113040C0A9DF0980088059DF09802FC340400883D
S113041C0C5C0F9805880A9DF0980088059DF0984F
S113042C02FC3404001006D720028806D161F8ECD3
S113043C5C0400C9F007FFADF0BDF4FAF48B9DF237
S113044C6AF240ADF0DAF48DF2480000EC75040069
S113045CC9F007FFADF0BDF4FAF48B9DF25AF2BF6C
S113046CADF0DAF48DF2480000C9F007FFADF0BD31
S113047CF4FAF48B9DF25AF2DFADF0DAF48DF24813
S113048C0000C9F227FFC9F027FFADF0BDF4FAF460
S113049C8B9DF05AF0F0ADF2BDF4DAF48DF0480017
S11304AC00C9F007FFADF0BDF2FAF28B9DF05CF0E1
S11304BC9DF188089DF05AF00F8DF16BF09DF0982A
S11304CC01C9F007FF88019DF2ADF0BDF4DAF48D9B
S11304DCF2480000C9F007FFADF0BDF4FAF48B9DAF
S11304ECF26AF210ADF0DAF48DF24800000000006C
S11304FC000000C9F007FFADF0BDF4FAF48B9DF2D7
S113050C5AF2EFADF0DAF48DF24800000000C9F0B5
S113051C07FFADF0BDF4FAF48B9DF26AF220ADF056
S113052CDAF48DF24800001002D72004C9F0E6FF7B
S113053CADF0BDF4FAF48B9DF26AF210ADF0DAF47E
S113054C8DF248000030983AB800FCD10300F198C1
S113055C0051039802FC340400300410B800FCD1A0
S113056C0300F1980051039802FC34040030640039
S113057CB800FCD10300F1980051039802FC340438
S113058C00302800B800FCD10300F1980051029807
S113059C02FC340400302800B800FCD10300F198AC
S11305AC0051289802FC030400302800B800FCD148
S11305BC0300F19800510E9802FC0304003028004B
S11305CCB800FCD10300F19800E19802FC0304008C
S11305DC306806B800FCD10300F19800510698026B
S11305ECFC030400302800B800FCD10300F198008F
S11305FC51809802FC030400302800B800FCD1039D
S113060C00F1980051069802FC030400302800B84D
S113061C00FCD103001004D7C9F207FFC9F007FF8F
S113062CADF0BDF4FAF48B9DF05AF080ADF2BDF44C
S113063CDAF48DF048000000C9F007FFADF0BDF40A
S113064CFAF48B9DF26AF240ADF0DAF48DF24800C4
S113065C0000C9F007FFADF0BDF4FAF48B9DF25A1B
S113066CF2BFADF0DAF48DF248000000C9F007FFD8
S113067CADF0BDF4FAF48B9DF26AF220ADF0DAF42D
S113068C8DF248000000C9F007FFADF0BDF4FAF498
S113069C8B9DF25AF2DFADF0DAF48DF248000000D3
S11306ACC9F007FFADF0BDF4FAF48B9DF26AF210B9
S11306BCADF0DAF48DF248000000C9F007FFADF09C
S11306CCBDF4FAF48B9DF25AF2EFADF0DAF48DF23C
S11306DC48000000C9F007FFADF0BDF4FAF48B9D9F
S11306ECF26AF201ADF0DAF48DF248000000C9F0C0
S11306FC07FFADF0BDF4FAF48B9DF26AF202ADF093
S113070CDAF48DF248000000C9F007FFADF0BDF437
S113071CFAF48B9DF26AF204ADF0DAF48DF248002F
S113072C0000C9F007FFADF0BDF4FAF48B9DF26A3A
S113073CF208ADF0DAF48DF248000000C9F207FFBC
S113074CC9F007FFADF0BDF4FAF48B9DF05AF080BC
S113075CADF2BDF4DAF48DF0480000D72004F19822
S113076C00510E9802FC030400302800B800FCD1A0
S113077C0300F19800E19802FC030400306806B809
S113078C00FCD10300F1980051069802FC0304000C
S113079C302800B800FCD10300F198005180980275
S11307ACFC030400302800B800FCD103001004D76B
S11307BC2008A80CBDF0B800FC872B008DF0980520
S11307CCFC680700301027B800FC630800F6B80674
S11307DCEC430800A806BDF0A80C06F0BDF0BDF271
S11307ECFAF28B9DF0D171FF61D8EC160800A806C3
S11307FCBDF0A80C06F0BDF0BDF2FAF28B9DF0E151
S113080C98008DF09802FC030400306400B800FCDE
S113081C630800A80644070061E8EC3E0800F19860
S113082C0051C09802FC030400306400B800FC635F
S113083C0800A806A1B8068805705100BDF2A806E8
S113084CBDF0ADF246F071FF7177F161F3ECE007A6
S113085C00717AFA1008D7EC6E0800A804BDF0B148
S113086CB804A80444000061E8EC670800D720042D
S113087CF19801ECD1080088019DF0CDF100300F06
S113088C0026F0BDF08DF076A8088696DD05311EA5
S113089C96DFFBBDF08DF098035C01980288019DF6
S11308ACF0CDF100A80A06F0BDF088020C309DF2E0
S11308BCADF0BDF4DAF48DF248000088019DF0A48B
S11308CCF08DF0980188019DF04AF00F61E3EC8300
S11308DC08001004D7C9F0F000ADF0BDF4FAF48BA5
S11308EC9DF26AF220ADF0DAF48DF2480000C9F002
S11308FC30FFADF0BDF2DAF2F1480000C9F0E7FFC9
S113090CADF0BDF4FAF48B9DF26AF201ADF0DAF4B9
S113091C8DF2480000C9F0E3FFADF0BDF4FAF48B9E
S113092C9DF25AF2FEADF0DAF48DF2480000C9F0F3
S113093CEFFFADF0BDF4FAF48B9DF26AF201ADF069
S113094CDAF48DF2480000C9F0EBFFADF0BDF4FA17
S113095CF48B9DF26AF201ADF0DAF48DF2480000EA
S113096CC9F222FFC9F022FFADF0BDF4FAF48B9D5D
S113097CF06AF01FADF2BDF4DAF48DF0480000C952
S113098CF26E00C9F06E00ADF0BDF4FAF48B9DF07C
S113099C6AF080ADF2BDF4DAF48DF0480000C9F2CF
S11309AC2EFFC9F02EFFADF0BDF4FAF48B9DF06A66
S11309BCF080ADF2BDF4DAF48DF0480000C9F26CAD
S11309CC00C9F06C00ADF0BDF4FAF48B9DF06AF044
S11309DC01ADF2BDF4DAF48DF0480000C9F22CFF3D
S11309ECC9F02CFFADF0BDF4FAF48B9DF06AF00164
S11309FCADF2BDF4DAF48DF0480000C9F030FFAD6F
S1130A0CF0BDF2DAF25108480000C9F032FFADF043
S1130A1CBDF4DAF45120480000C9F01000ADF0BD6B
S1130A2CF2DAF2F1480000C9F01100ADF0BDF4DACD
S1130A3CF451FF480000C9F01200ADF0BDF2DAF237
S1130A4CF1480000C9F031FFADF0BDF4DAF4510403
S1130A5C480000C9F030FFADF0BDF4FAF48B9DF200
S1130A6C6AF201ADF0DAF48DF2480000D7C9F0E374
S1130A7CFFADF0BDF4FAF48B9DF25AF2FEADF0DA50
S1130A8CF48DF2480000C9F0E7FFADF0BDF4FAF4C0
S1130A9C8B9DF25AF2FEADF0DAF48DF2480000C9E7
S1130AACF030FFADF0BDF4FAF48B9DF26AF280AD38
S1130ABCF0DAF48DF2480000D7C9F030FFADF0BD88
S1130ACCF4FAF48B9DF25AF27FADF0DAF48DF2481D
S1130ADC0000C9F0E7FFADF0BDF4FAF48B9DF26AA7
S1130AECF201ADF0DAF48DF2480000C9F0E3FFAD89
S1130AFCF0BDF4FAF48B9DF25AF2FEADF0DAF48DFB
S1130B0CF2480000D7C9F030FFADF0BDF4FAF48B15
S1130B1C9DF26AF201ADF0DAF48DF2480000D7C907
S1130B2CF030FFADF0BDF4FAF48B9DF25AF2FEAD49
S1130B3CF0DAF48DF2480000D7C9F01EFFADF0BD19
S1130B4CF2FAF2ABBDF0316EBDF2A804BDF0BDF407
S1130B5CDAF4ADF2780000D761CFC1C3C5C7C6C4FF
S1130B6CC2C061FC2002C9F0A0FFADF0BDF2DAF204
S1130B7C5110480000C9F0A1FFADF0BDF4FAF48B9C
S1130B8C9DF26AF280ADF0DAF48DF2480000C9F0FF
S1130B9CA4FFADF0BDF4FAF48B9DF25AF2EFADF074
S1130BACDAF48DF2480000C9F0A1FFADF0BDF4FAFF
S1130BBCF48B9DF25AF2BFADF0DAF48DF2480000DA
S1130BCCF6B800ECDE0B0000A800BDF0A6F0ADF00A
S1130BDCB800A800BDF044A00061E3ECD30B00C93D
S1130BECF0F300ADF0BDF2DAF2F1480000C9F0A464
S1130BFCFFADF0BDF4FAF48B9DF25AF2BFADF0DA0E
S1130C0CF48DF2480000C9F0A1FFADF0BDF4FAF484
S1130C1C8B9DF25AF2FEADF0DAF48DF2480000101E
S1130C2C02D7C9F0E4FFADF0BDF4FAF48B9DF26A7F
S1130C3CF204ADF0DAF48DF2480000C9F0E0FFAD37
S1130C4CF0BDF4FAF48B9DF25AF2FBADF0DAF48DAC
S1130C5CF2480000C9F0E4FFADF0BDF4FAF48B9D4A
S1130C6CF26AF208ADF0DAF48DF2480000C9F0E053
S1130C7CFFADF0BDF4FAF48B9DF25AF2F7ADF0DA55
S1130C8CF48DF2480000C9F0E4FFADF0BDF4FAF4C1
S1130C9C8B9DF26AF210ADF0DAF48DF2480000C9C3
S1130CACF0E0FFADF0BDF4FAF48B9DF25AF2EFAD27
S1130CBCF0DAF48DF2480000C9F0E4FFADF0BDF4B5
S1130CCCFAF48B9DF26AF220ADF0DAF48DF248005E
S1130CDC00C9F0E0FFADF0BDF4FAF48B9DF25AF2CA
S1130CECDFADF0DAF48DF2480000C9F0E4FFADF0AA
S1130CFCBDF4FAF48B9DF26AF240ADF0DAF48DF2A5
S1130D0C480000C9F0E0FFADF0BDF4FAF48B9DF29D
S1130D1C5AF2BFADF0DAF48DF2480000C9F0E4FFEA
S1130D2CADF0BDF4FAF48B9DF26AF280ADF0DAF416
S1130D3C8DF2480000C9F0E0FFADF0BDF4FAF48B7D
S1130D4C9DF25AF27FADF0DAF48DF2480000C9F04E
S1130D5CD4FFADF0BDF4FAF48B9DF26AF208ADF059
S1130D6CDAF48DF2480000C9F0D0FFADF0BDF4FA0E
S1130D7CF48B9DF25AF2F7ADF0DAF48DF2480000E0
S1130D8CC9F0D4FFADF0BDF4FAF48B9DF26AF21005
S1130D9CADF0DAF48DF2480000C9F0D0FFADF0BD2F
S1130DACF4FAF48B9DF25AF2EFADF0DAF48DF248CA
S1130DBC0000C9F0D4FFADF0BDF4FAF48B9DF26AD7
S1130DCCF220ADF0DAF48DF2480000C9F0D0FFAD9A
S1130DDCF0BDF4FAF48B9DF25AF2DFADF0DAF48D37
S1130DECF2480000C9F0D4FFADF0BDF4FAF48B9DC9
S1130DFCF26AF240ADF0DAF48DF2480000C9F0D09A
S1130E0CFFADF0BDF4FAF48B9DF25AF2BFADF0DAFB
S1130E1CF48DF2480000C9F0D4FFADF0BDF4FAF43F
S1130E2C8B9DF26AF280ADF0DAF48DF2480000C9C1
S1130E3CF0D0FFADF0BDF4FAF48B9DF25AF27FAD15
S1130E4CF0DAF48DF2480000C9F0D5FFADF0BDF432
S1130E5CFAF48B9DF26AF201ADF0DAF48DF24800EB
S1130E6C00C9F0D1FFADF0BDF4FAF48B9DF25AF247
S1130E7CFEADF0DAF48DF2480000C9F0DCFFADF001
S1130E8CBDF4FAF48B9DF26AF210ADF0DAF48DF243
S1130E9C480000C9F0D8FFADF0BDF4FAF48B9DF214
S1130EAC6AF210ADF0DAF48DF2480000C9F039FFA3
S1130EBCADF0BDF2DAF25180480000C9F038FFAD54
S1130ECCF0BDF4DAF45180480000C9F22EFFC9F0E9
S1130EDC2EFFADF0BDF4FAF48B9DF06AF002ADF286
S1130EECBDF4DAF48DF0480000D7C9F0D0FFADF0B2
S1130EFCBDF4FAF48B9DF25AF2EFADF0DAF48DF204
S1130F0C480000C9F0D4FFADF0BDF4FAF48B9DF2A7
S1130F1C5AF2EFADF0DAF48DF2480000D7C9F0D4F0
S1130F2CFFADF0BDF4FAF48B9DF26AF210ADF0DA79
S1130F3CF48DF2480000C9F0D0FFADF0BDF4FAF422
S1130F4C8B9DF25AF2EFADF0DAF48DF2480000D733
S1130F5C61CFC1C3C5C761DFC1C3C5C761CFF53A92
S1130F6CE9FC290F00FC8D1E0061DFC6C4C2C06100
S1130F7CCFC6C4C2C061FCC9F0A5FFADF0BDF4FA84
S1130F8CF48B9DF25AF27FADF0DAF48DF248000046
S1130F9CC9F0A5FFADF0BDF2DAF2510D480000C95D
S1130FACF20EFFC9F00EFFADF0BDF4FAF48B9DF018
S1130FBC5AF0FEADF2BDF4DAF48DF0480000C9F23B
S1130FCC2EFFC9F02EFFADF0BDF4FAF48B9DF05A50
S1130FDCF0FEADF2BDF4DAF48DF0480000D7C9F0A0
S1130FECA5FFADF0BDF4FAF48B9DF26AF280ADF07E
S1130FFCDAF48DF2480000D7C9F0A5FFADF0BDF4CA
S113100CFAF48B9DF25AF27FADF0DAF48DF24800CB
S113101C00D7C9F004FFADF0BDF2DAF25104480078
S113102C00C9F007FFADF0BDF2DAF2F1480000C9D7
S113103CF03000ADF0BDF2DAF2510C480000C9F00A
S113104C3400ADF0BDF2DAF2E1480000C9F03E0024
S113105CADF0BDF2DAF25140480000C9F04000ADE9
S113106CF0BDF2DAF25108480000C9F020FFADF0EF
S113107CBDF2DAF251FF480000C9F024FFADF0BD17
S113108CF2DAF251F1480000C9F027FFADF0BDF2DD
S113109CDAF25180480000C9F02EFFADF0BDF2DA4F
S11310ACF251FF480000D7C9F0F000ADF0BDF4FADE
S11310BCF48B9DF26AF204ADF0DAF48DF248000080
S11310CC00000000C9F02601ADF0BDF2DAF23033B5
S11310DC00780000FCE51000D761EFC161CFC9E8CE
S11310EC2401C9F62401ADF6BDF0FAF0ABBDF68DC2
S11310FCF66C0C9DF48DF76C009DF5DAE8ADF47884
S113110C0000C9F4E6FFADF4BDF2FAF28B9DF66A69
S113111CF601ADF4BDF0DAF08DF6480000C9F4E246
S113112CFFADF4BDF2FAF28B9DF65AF6FEADF4BDAA
S113113CF0DAF08DF6480000C9F4E6FFADF4BDF228
S113114CFAF28B9DF66AF602ADF4BDF0DAF08DF688
S113115C480000C9F4E2FFADF4BDF2FAF28B9DF63F
S113116C5AF6FDADF4BDF0DAF08DF6480000C9F482
S113117CE6FFADF4BDF2FAF28B9DF66AF604ADF41B
S113118CBDF0DAF08DF6480000C9F4E2FFADF4BD11
S113119CF2FAF28B9DF65AF6FBADF4BDF0DAF08D53
S11311ACF6480000C9F4EEFFADF4BDF2FAF28B9DE3
S11311BCF66AF601ADF4BDF0DAF08DF6480000C91C
S11311CCF4EAFFADF4BDF2FAF28B9DF66AF601ADCA
S11311DCF4BDF0DAF08DF6480000C9F4EEFFADF47E
S11311ECBDF2FAF28B9DF66AF602ADF4BDF0DAF0BC
S11311FC8DF6480000C9F4EAFFADF4BDF2FAF28BA7
S113120C9DF66AF602ADF4BDF0DAF08DF6480000F6
S113121CC9F41401ADF4BDF2DAF230220078000006
S113122CC9F41C01ADF4BDF0DAF0309780780000FD
S113123CC9F444FFADF4BDF2DAF23000CE7800000C
S113124CC9F67000C9F47000ADF4BDF0FAF08B9DD2
S113125CF46AF404ADF6BDF2DAF28DF4480000C978
S113126CF40E01ADF4BDF0DAF0300700780000C9DB
S113127CF41601ADF4BDF2DAF2302201780000C9A3
S113128CF41E01ADF4BDF0DAF0309740780000C9DB
S113129CF446FFADF4BDF2DAF23000CE780000C9AA
S11312ACF62801C9F42801ADF4BDF0FAF0ABBDF495
S11312BC8DF46C049DF28DF56C009DF3ADF6BDF4CC
S11312CCDAF4ADF2780000C9F43401C9F23401AD9A
S11312DCF2BDF0FAF0ABBDF2ADF4BDF0DAF0ADF264
S11312EC780000C9F42A01C9F22A01ADF2BDF0FA62
S11312FCF0ABBDF28DF26C049DF08DF36C009DF19E
S113130CADF4BDF2DAF2ADF0780000C9F26000C9B8
S113131CF06000ADF0BDF4FAF48B9DF05AF0F7AD2B
S113132CF2BDF4DAF48DF0480000C9F220FFC9F0E4
S113133C20FFADF0BDF4FAF48B9DF06AF008ADF229
S113134CBDF4DAF48DF0480000C9F26000C9F06015
S113135C00ADF0BDF4FAF48B9DF05AF0FBADF2BD88
S113136CF4DAF48DF0480000C9F200FFC9F000FF74
S113137CADF0BDF4FAF48B9DF06AF004ADF2BDF45B
S113138CDAF48DF0480000C9F220FFC9F020FFAD5B
S113139CF0BDF4FAF48B9DF05AF0FBADF2BDF4DA27
S11313ACF48DF048000061EFC061CFD761EFC161EB
S11313BCCFC9E82801C9F62801ADF6BDF0FAF0ABA7
S11313CCBDF68DF66C049DF48DF76C009DF5DAE892
S11313DCADF4780000C9F62A01C9F42A01ADF4BDB4
S11313ECF2FAF2ABBDF48DF46C049DF28DF56C0045
S11313FC9DF3ADF6BDF4DAF4ADF2780000C9F42235
S113140C01C9F22201ADF2BDF0FAF0ABBDF28DF2DE
S113141C6C0C9DF08DF36C009DF1ADF4BDF2DAF221
S113142CADF0780000C9F0E2FFADF0BDF4FAF48B36
S113143C9DF25AF2FEADF0DAF48DF2480000C9F0D8
S113144CE2FFADF0BDF4FAF48B9DF25AF2FDADF06F
S113145CDAF48DF2480000C9F0E6FFADF0BDF4FA01
S113146CF48B9DF25AF2FEADF0DAF48DF2480000E2
S113147CC9F0E6FFADF0BDF4FAF48B9DF25AF2FD1F
S113148CADF0DAF48DF248000061EFC061CFD7C93A
S113149CF4E6FFADF4BDF0FAF08B9DF66AF601ADFF
S11314ACF4BDF2DAF28DF6480000C9F4E6FFADF4AF
S11314BCBDF0FAF08B9DF66AF602ADF4BDF2DAF2E9
S11314CC8DF6480000C9F62401C9F42401ADF4BD1D
S11314DCF0FAF0ABBDF48DF46C0C9DF28DF56C0050
S11314EC9DF3ADF6BDF4DAF4ADF2780000C9F42A3C
S11314FC01C9F22A01ADF2BDF0FAF0ABBDF28DF2E6
S113150C5CFB9DF08DF35CFF9DF1ADF4BDF2DAF262
S113151CADF0780000C9F0E2FFADF0BDF4FAF48B45
S113152C9DF25AF2FEADF0DAF48DF2480000C9F0E7
S113153CE2FFADF0BDF4FAF48B9DF25AF2FDADF07E
S113154CDAF48DF2480000D72002F6B800A808445B
S113155C000061E8EC6D1500308100B800EC7F15DB
S113156C00F6BF40E9A808BDF0BF3EE9A806BDF0EF
S113157CBF42E9A800BDF01002D72002F6B800A8BB
S113158C0844000061E8EC9F1500308100B800ECC1
S113159C121600A806BDF0BF44E9A808BDF0BF466A
S11315ACE9C9F0E6FFADF0BDF4FAF48B9DF26AF2F2
S11315BC01ADF0DAF48DF2480000C9F244FFAF44F7
S11315CCE9BDF0BDF4FAF48B9DF0ADF2BDF4DAF4A0
S11315DC8DF0480000AF44E9BDF0A6F0ADF0BF4477
S11315ECE9AF46E9BDF0B6F0ADF0BF46E9C9F0E6A7
S11315FCFFADF0BDF4FAF48B9DF25AF2FEADF0DAC5
S113160CF48DF2480000A800BDF01002D761CFC1E0
S113161CC3C5C761DFC1C3C5C761CF2004C9F00608
S113162C01ADF0BDF2FAF2ABBDF08DF05C0798039E
S113163CC9F20E018803705100BDF0ADF2BDF4DAAD
S113164CF4ADF07800008803D161F8EC65160088DD
S113165C039DF09800FC5B1700C9F046FFADF0BD8C
S113166CF2FAF28B9DF09802AF3EE9BDF2AF40E97D
S113167CBDF0ADF246F061E3ECD01600AF42E9BD2B
S113168CF088029DF2ADF0BDF4DAF48DF24800005E
S113169CAF42E9BDF0A6F0ADF0BF42E9AF40E9BD01
S11316ACF0A6F0ADF0BF40E9AF3EE9BDF2AF40E9C2
S11316BCBDF0ADF246F061E8ECDD1600FC5217000B
S11316CCECDD16008802705100BDF0B800FC561712
S11316DC00100461DFC6C4C2C061CFC6C4C2C061FD
S11316ECFC61CFC1C3C5C761DFC1C3C5C761CFAF7F
S11316FC46E9BDF044000061F8EC401700C9F2441F
S113170CFFAF44E9BDF0BDF4FAF48B9DF0ADF2BD2E
S113171CF4DAF48DF0480000AF44E9BDF0A6F0AD66
S113172CF0BF44E9AF46E9BDF0B6F0ADF0BF46E911
S113173CEC441700FC57170061DFC6C4C2C061CF6C
S113174CC6C4C2C061FCE509E9D7D7E522E9D7D7FD
S113175C61EFC1C3C561CF2012C9F2F000ADF2BD77
S113176CF4FAF48B9DF06AF001ADF2DAF48DF048E2
S113177C0000C9F0B601ADF0BDF2DAF230400378E6
S113178C0000C9F0B401ADF0BDF4DAF4300F0A78FE
S113179C0000C9F2E6FFADF2BDF4FAF48B9DF06AD9
S11317ACF010ADF2DAF48DF0480000C9F2E2FFADAE
S11317BCF2BDF4FAF48B9DF05AF0EFADF2DAF48D3D
S11317CCF0480000C9F2E6FFADF2BDF4FAF48B9DCB
S11317DCF06AF020ADF2DAF48DF0480000C9F2E2C0
S11317ECFFADF2BDF4FAF48B9DF05AF0DFADF2DAF2
S11317FCF48DF0480000C9F2E5FFADF2BDF4FAF443
S113180C8B9DF06AF080ADF2DAF48DF0480000C9DB
S113181CF2E1FFADF2BDF4FAF48B9DF05AF07FAD1A
S113182CF2DAF48DF0480000C9F2E6FFADF2BDF433
S113183CFAF48B9DF06AF040ADF2DAF48DF04800C6
S113184C00C9F2E2FFADF2BDF4FAF48B9DF05AF04C
S113185CBFADF2DAF48DF0480000C9F2E6FFADF248
S113186CBDF4FAF48B9DF06AF080ADF2DAF48DF0ED
S113187C480000C9F2E2FFADF2BDF4FAF48B9DF01E
S113188C5AF07FADF2DAF48DF0480000C9F2E6FFAD
S113189CADF2BDF4FAF48B9DF06AF004ADF2DAF417
S11318AC8DF0480000C9F2E2FFADF2BDF4FAF48BFE
S11318BC9DF05AF0FBADF2DAF48DF0480000C9F259
S11318CCEEFFADF2BDF4FAF48B9DF06AF010ADF2BC
S11318DCDAF48DF0480000C9F2EAFFADF2BDF4FA77
S11318ECF48B9DF06AF010ADF2DAF48DF048000040
S11318FCC9F2EEFFADF2BDF4FAF48B9DF06AF02060
S113190CADF2DAF48DF0480000C9F2EAFFADF2BD95
S113191CF4FAF48B9DF06AF020ADF2DAF48DF04811
S113192C0000C9F2EEFFADF2BDF4FAF48B9DF06A3F
S113193CF040ADF2DAF48DF0480000C9F2EAFFADE4
S113194CF2BDF4FAF48B9DF06AF040ADF2DAF48D4A
S113195CF0480000C9F2EEFFADF2BDF4FAF48B9D31
S113196CF06AF080ADF2DAF48DF0480000C9F2EAC6
S113197CFFADF2BDF4FAF48B9DF06AF080ADF2DAAF
S113198CF48DF0480000C9F09001ADF0BDF2DAF22C
S113199C300080780000C9F018FFADF0BDF4DAF423
S11319AC3017F6780000C9F2B801C9F0B801ADF0EF
S11319BCBDF4FAF4ABBDF08DF05CFE9DF48DF15CDE
S11319CCFF9DF5ADF2BDF0DAF0ADF4780000C9F28C
S11319DCBA01C9F0BA01ADF0BDF4FAF4ABBDF08DA7
S11319ECF05CFE9DF68DF15CFF9DF7ADF2BDF0DA77
S11319FCF0ADF6780000C9F09201ADF0BDF2DAF268
S1131A0C300048780000C9F01AFFADF0BDF4DAF4E8
S1131A1C51F9480000C9F2BE01C9F0BE01ADF0BDD8
S1131A2CF4FAF4ABBDF08DF05CFD9DE88DF15CFF38
S1131A3C9DE9ADF2BDF0DAF0ADE8780000C9F2BC76
S1131A4C01C9F0BC01ADF0BDF4FAF4ABBDF08DF0FE
S1131A5C5CFD9DEA8DF15CFF9DEBADF2BDF0DAF01F
S1131A6CADEA780000C9F2B801C9F0B801ADF0BD17
S1131A7CF4FAF4ABBDF08DF05CFD9DEC8DF15CFFE4
S1131A8C9DEDADF2BDF0DAF0ADEC780000C9F2BA20
S1131A9C01C9F0BA01ADF0BDF4FAF4ABBDF08DF0B0
S1131AAC5CFD98108DF15CFF9811A810BDF4ADF29B
S1131ABCBDF0DAF0ADF4780000C9F09401ADF0BDDE
S1131ACCF2DAF2F6780000C9F064FFADF0BDF4DA96
S1131ADCF430C700780000C9F2BE01C9F0BE01ADF4
S1131AECF0BDF4FAF4ABBDF08DF05CFB980E8DF107
S1131AFC5CFF980FA80EBDF4ADF2BDF0DAF0ADF4B6
S1131B0C780000C9F2BC01C9F0BC01ADF0BDF4FA17
S1131B1CF4ABBDF08DF05CFB980C8DF15CFF980D73
S1131B2CA80CBDF4ADF2BDF0DAF0ADF4780000C948
S1131B3CF2B801C9F0B801ADF0BDF4FAF4ABBDF0E4
S1131B4C8DF05CFB980A8DF15CFF980BA80ABDF430
S1131B5CADF2BDF0DAF0ADF4780000C9F2BA01C907
S1131B6CF0BA01ADF0BDF4FAF4ABBDF08DF05CFB52
S1131B7C98088DF15CFF9809A808BDF4ADF2BDF08E
S1131B8CDAF0ADF4780000C9F09601ADF0BDF2DAEC
S1131B9CF2F6780000C9F066FFADF0BDF4DAF4306B
S1131BACBF1B780000C9F2BE01C9F0BE01ADF0BD87
S1131BBCF4FAF4ABBDF08DF05CF798068DF15CFF94
S1131BCC9807A806BDF4ADF2BDF0DAF0ADF47800D8
S1131BDC00C9F2BC01C9F0BC01ADF0BDF4FAF4AB20
S1131BECBDF08DF05CF798048DF15CFF9805A804AA
S1131BFCBDF4ADF2BDF0DAF0ADF4780000C9F2B882
S1131C0C01C9F0B801ADF0BDF4FAF4ABBDF08DF040
S1131C1C5CF798028DF15CFF9803A802BDF4ADF259
S1131C2CBDF0DAF0ADF4780000C9F2BA01C9F0BA2B
S1131C3C01ADF0BDF4FAF4ABBDF08DF05CF7980097
S1131C4C8DF15CFF9801A800BDF4ADF2BDF0DAF0A3
S1131C5CADF4780000101261EFC4C2C061CFD7C9D3
S1131C6CF2E2FFADF2BDF0FAF08B9DF45AF4EFAD55
S1131C7CF2DAF08DF4480000C9F2E6FFADF2BDF0E3
S1131C8CFAF08B9DF45AF4EFADF2DAF08DF44800CF
S1131C9C00C9F4B201C9F2B201ADF2BDF0FAF0AB75
S1131CACBDF28DF26C019DF08DF36C009DF1ADF4E1
S1131CBCBDF2DAF2ADF0780000D7C9F4B401C9F280
S1131CCCB401ADF2BDF0FAF0ABBDF28DF26C019D36
S1131CDCF08DF36C009DF1ADF4BDF2DAF2ADF07859
S1131CEC0000C9F0E6FFADF0BDF4FAF48B9DF26A86
S1131CFCF210ADF0DAF48DF2480000C9F0E2FFAD59
S1131D0CF0BDF4FAF48B9DF25AF2EFADF0DAF48DE7
S1131D1CF2480000D7C9F2E2FFADF2BDF0FAF08B45
S1131D2C9DF45AF4DFADF2DAF08DF4480000C9F2F8
S1131D3CE6FFADF2BDF0FAF08B9DF45AF4DFADF290
S1131D4CDAF08DF4480000C9F4B201C9F2B201AD65
S1131D5CF2BDF0FAF0ABBDF28DF26C029DF08DF396
S1131D6C6C009DF1ADF4BDF2DAF2ADF0780000D761
S1131D7CC9F4B401C9F2B401ADF2BDF0FAF0ABBDD3
S1131D8CF28DF26C029DF08DF36C009DF1ADF4BDFF
S1131D9CF2DAF2ADF0780000C9F0E6FFADF0BDF474
S1131DACFAF48B9DF26AF220ADF0DAF48DF248006D
S1131DBC00C9F0E2FFADF0BDF4FAF48B9DF25AF2D7
S1131DCCDFADF0DAF48DF2480000D7C9F2E2FFADD2
S1131DDCF2BDF0FAF08B9DF45AF4BFADF2DAF08D4B
S1131DECF4480000C9F2E6FFADF2BDF0FAF08B9DA9
S1131DFCF45AF4BFADF2DAF08DF4480000C9F4B231
S1131E0C01C9F2B201ADF2BDF0FAF0ABBDF28DF244
S1131E1C6C049DF08DF36C009DF1ADF4BDF2DAF21F
S1131E2CADF0780000D7C9F4B401C9F2B401ADF235
S1131E3CBDF0FAF0ABBDF28DF26C049DF08DF36C39
S1131E4C009DF1ADF4BDF2DAF2ADF0780000C9F00A
S1131E5CE6FFADF0BDF4FAF48B9DF26AF240ADF0FE
S1131E6CDAF48DF2480000C9F0E2FFADF0BDF4FAEB
S1131E7CF48B9DF25AF2BFADF0DAF48DF248000007
S1131E8CD7C9F2E2FFADF2BDF0FAF08B9DF45AF42F
S1131E9C7FADF2DAF08DF4480000C9F2E6FFADF242
S1131EACBDF0FAF08B9DF45AF47FADF2DAF08DF4B8
S1131EBC480000C9F4B201C9F2B201ADF2BDF0FAA6
S1131ECCF0ABBDF28DF26C089DF08DF36C009DF1BE
S1131EDCADF4BDF2DAF2ADF0780000D7C9F4B40178
S1131EECC9F2B401ADF2BDF0FAF0ABBDF28DF26CF7
S1131EFC089DF08DF36C009DF1ADF4BDF2DAF2ADFA
S1131F0CF0780000C9F0E6FFADF0BDF4FAF48B9D57
S1131F1CF26AF280ADF0DAF48DF2480000C9F0E216
S1131F2CFFADF0BDF4FAF48B9DF25AF27FADF0DA0A
S1131F3CF48DF2480000D7C9F07A00ADF0BDF4FA84
S1131F4CF48B9DF26AF210ADF0DAF48DF2480000D5
S1131F5CC9F26302C9F06302ADF0BDF4FAF48B9DCF
S1131F6CF06AF004ADF2BDF4DAF48DF0480000C967
S1131F7CF26302C9F06302ADF0BDF4FAF48B9DF088
S1131F8C5AF0FEADF2BDF4DAF48DF0480000C9F05D
S1131F9CD5FFADF0BDF4FAF48B9DF26AF202ADF00C
S1131FACDAF48DF2480000C9F0D1FFADF0BDF4FABB
S1131FBCF48B9DF25AF2FDADF0DAF48DF248000088
S1131FCCC9F0DDFFADF0BDF4FAF48B9DF26AF202B8
S1131FDCADF0DAF48DF2480000C9F0D9FFADF0BDD4
S1131FECF4FAF48B9DF26AF202ADF0DAF48DF24855
S1131FFC0000C9F06402C9F26402ADF2BDF4FAF453
S113200C8B9DF2ADF0BDF4DAF48DF2480000C9F208
S113201C6502C9F06502ADF0BDF4FAF48B9DF06A6B
S113202CF001ADF2BDF4DAF48DF0480000C9F06AA9
S113203C02ADF0BDF2DAF2F1480000C9F26702C950
S113204CF06702ADF0BDF4FAF48B9DF05AF0F0ADEC
S113205CF2BDF4DAF48DF0480000C9F26702C9F05D
S113206C6702ADF0BDF4FAF48B9DF06AF00DADF29D
S113207CBDF4DAF48DF0480000C9F06902C9F269C4
S113208C02ADF2BDF4FAF48B9DF2ADF0BDF4DAF4CA
S113209C8DF2480000C9F27002C9F07002ADF0BDB7
S11320ACF4FAF48B9DF06AF020ADF2BDF4DAF48D01
S11320BCF0480000C9F07402ADF0BDF2DAF251132D
S11320CC480000C9F07502ADF0BDF4DAF4E1480043
S11320DC00C9F07802ADF0BDF2DAF2303F1F78009F
S11320EC00C9F07A02ADF0BDF4DAF430EF147800E4
S11320FC00C9F25100C9F05100ADF0BDF4FAF48BF3
S113210C9DF05AF0DFADF2BDF4DAF48DF048000026
S113211CC9F201FFC9F001FFADF0BDF4FAF48B9DD7
S113212CF05AF0DFADF2BDF4DAF48DF0480000C9DA
S113213CF221FFC9F021FFADF0BDF4FAF48B9DF050
S113214C5AF0DFADF2BDF4DAF48DF0480000D7207C
S113215C02C9F0D1FFADF0BDF4FAF48B9DF25AF242
S113216CFDADF0DAF48DF2480000C9F07302ADF065
S113217CBDF2FAF28B9DF09801C9F07302ADF0BD7B
S113218CF4DAF4F1480000C9F0D5FFADF0BDF4FA6F
S113219CF48B9DF25AF2FDADF0DAF48DF2480000A6
S11321ACC9F26302C9F06302ADF0BDF4FAF48B9D7D
S11321BCF06AF004ADF2BDF4DAF48DF0480000C915
S11321CCF26302C9F06302ADF0BDF4FAF48B9DF036
S11321DC6AF001ADF2BDF4DAF48DF048000010029F
S11321ECD72002C9F26302C9F06302ADF0BDF4FA60
S11321FCF48B9DF06AF004ADF2BDF4DAF48DF04882
S113220C0000C9F26302C9F06302ADF0BDF4FAF444
S113221C8B9DF05AF0FEADF2BDF4DAF48DF048006B
S113222C00C9F0D5FFADF0BDF4FAF48B9DF26AF25F
S113223C02ADF0DAF48DF2480000C9F0D1FFADF034
S113224CBDF4FAF48B9DF25AF2FDADF0DAF48DF292
S113225C480000C9F07302ADF0BDF2FAF28B9DF0A8
S113226C9801C9F07302ADF0BDF4DAF4F148000042
S113227C1002D761CFC1C3C5C7C6C4C2C061FC615B
S113228CCFC1C3C5C7E548E9C6C4C2C061FC61CFB0
S113229CC1C3C5C7E549E9C6C4C2C061FC61CFC1AD
S11322ACC3C5C761DFC1C3C5C761CFFCDC0000C9AE
S11322BCF207FFC9F007FFADF0BDF4FAF48B9DF003
S11322CC7AF080ADF2BDF4DAF48DF048000061DFF1
S11322DCC6C4C2C061CFC6C4C2C061FC61CFC1C395
S11322ECC5C7C6C4C2C061FC61CFC1C3C5C7C6C41F
S11322FCC2C061FCC9F07700ADF0BDF2DAF2F1486E
S113230C0000C9F07900ADF0BDF2DAF2F14800003A
S113231CFC700B00FC1E1000FCB31000FCE1080068
S113232CFC5C1700FC830F00FC2E0C00FC431F000C
S113233CC9F07800ADF0BDF2DAF2F1480000D72014
S113234C02717BFAFC002300E6B800BDF01002D742
S113235C2024FCC2270051729F0CE9300CE9B80010
S113236CE6B802FC541500ADF0BF24E9F6BF38E919
S113237CFC412A00FC4402008F3AE99DF0D4F06140
S113238CF8ECD423008F3BE99DF0D4F061F8ECD445
S113239C2300AF38E9BDF0B800C9F02400AEF8BD95
S11323ACF0042400BDF004E0FFB802FC7A0800C974
S11323BCF42400AEF8BDF4042400BDF404E0FFB82A
S11323CC00FCBC0700F53BE98F09E99DF0D4F061F2
S11323DCF8ECA02700F509E98F0CE99DF04AF0818F
S11323EC61E8EC0B2400E6BF20E951819800FC9EC7
S11323FC290030B02BB800FCBC0700EC8F27008FF1
S113240C0CE99DF04AF08061E8EC322400F6BF2020
S113241CE951809800FC9E290030BA2BB800FCBC12
S113242C0700EC8F27008F0CE99DF04AF0F061E86F
S113243CEC50240051F09800FC9E2900FCEA0F009B
S113244CEC8F27008F0CE99DF04AF0F161E8EC6EFB
S113245C240051F19800FC9E2900FC041000EC8F20
S113246C27008F0CE99DF04AF0F961E8ECC72400D1
S113247C51F99800FC9E2900C9F004FFADF0BDF49D
S113248CFAF48B9DF25AF2FDADF0DAF48DF24800B9
S113249C00C9F004FFADF0BDF4FAF48B9DF26AF2BE
S11324AC04ADF0DAF48DF2480000F6BF0AE930C648
S11324BC2BB800FCBC0700EC8F27008F0CE99DF0B7
S11324CC4AF0F861E8EC20250051F89800FC9E29AC
S11324DC00C9F004FFADF0BDF4FAF48B9DF26AF27E
S11324EC02ADF0DAF48DF2480000C9F004FFADF04F
S11324FCBDF4FAF48B9DF26AF204ADF0DAF48DF2C9
S113250C480000F6BF0AE930D62BB800FCBC070023
S113251CEC8F27008F0CE99DF04AF0F761E8EC3A58
S113252C250051F79800FC9E2900EC8F27008F0C96
S113253CE99DF04AF0FF61E8ECEA250051FF9800B0
S113254CFC9E2900300A00B800FC6E2900AF0AE991
S113255CBDF044010061F8EC9D2500ADF044010090
S113256C71FF61F3EC832500ADF044000061F8ECDD
S113257CC72500EC8F2700ADF044020061F8ECB2E3
S113258C2500ADF044030061F8ECDC2500EC8F274A
S113259C0051829800FC9E290030E62BB800FCBC4C
S11325AC0700ECE6250051819800FC9E290030EDD3
S11325BC2BB800FCBC0700ECE6250051849800FC09
S11325CC9E290030F42BB800FCBC0700ECE6250077
S11325DC30FC2BB800FCBC070000EC8F27008F0CE0
S11325ECE99DF04AF0FC61E8EC51260051FC98009E
S11325FCFC9E2900300A00B800FC6E2900AF38E9B3
S113260CBDF08DF05C07981BAF38E9BDF0313EBDD1
S113261CF08DF0981AAF38E9BDF031BEBDF08DF0F5
S113262C5C069819881A9DF09800FC9E290088195C
S113263C31699DF076881B610E9DF09800FC9E29F3
S113264C00EC8F2700AF06E9BDF044270071FF6151
S113265CF3EC8E26008F0CE99DF04AF07E61F3ECCE
S113266C8E2600AF06E9BDF08F0CE99DF2DAF04836
S113267C4CE9AF06E9BDF0A6F0ADF0BF06E9EC8F6E
S113268C2700AF20E9BDF044010061E8EC8F27007E
S113269C8F0CE99DF04AF0F461E8EC8F270051F4BB
S11326AC9800FC9E2900FC360500F6B822F6B820EA
S11326BCF6B81E301000B816E6B814AF06E9BDF033
S11326CC440F0071FF61E3ECE52600AF06E9BDF0B1
S11326DC04F1FFB81CECE82600E6B81CF6B820ECB4
S11326EC782700F6B822EC3D2700A81E16A822076E
S11326FCBDF0044CE9168B9DF0E198008DF0980226
S113270CFC03040030B20CB800FCD10300A8224432
S113271C070061E8EC382700F1980051C09802FCDE
S113272C030400306400B800FCD10300A822A1B853
S113273C22AF06E9BDF0A82246F071FF7177F16172
S113274CD8ECF62600A81EA1B81EF198005180986A
S113275C02FC030400306400B800FCD10300305EBA
S113276C01B800FC6E2900A820A1B820A81CBDF05B
S113277CA82046F071FF7177F161D8ECEF2600F6D2
S113278CBF06E9300CE9B800E6B802FC541500ADFC
S113279CF0BF24E98F22E99DF0D4F061F8ECB02766
S11327AC00F522E9306400B800301900B802FCBB13
S11327BC2900EC7C23002002717AFAFCB81300FC8B
S11327CC6B1C00FCD71D00FC5B2100E53BE9E53CE0
S11327DCE9F53AE9FCF60E00F509E9F522E9FC36CF
S11327EC0500FC522800FC360500F6BF0AE9F6BFCA
S11327FC20E951809800FC9E2900306400B800FC4C
S113280CD10300F522E930BA2BB800FCBC0700C98F
S113281CF004FFADF0BDF4FAF48B9DF25AF2FBAD6B
S113282CF0DAF48DF24800001002D72004E198008D
S113283C88089DF09802FC030400306400B800FC86
S113284CD103001004D7202CF6B82AF6B828F6B811
S113285C26302020B804302020B806302020B808B8
S113286C302020B80A302020B80C302020B80E308C
S113287C2020B810302020B812304E65B814306CBB
S113288C20B81630542EB818302031B81A303831DC
S113289CB81C303739B81E303436B820303000B854
S11328AC22302000B824F6B826EC482900F6B828C3
S11328BCEC142900A82A16A82807BDF0AEF8BDF41C
S11328CC040400BDF206F0BDF0BDF2FAF28B9DF0EB
S11328DCE198008DF09802FC030400306400B80009
S11328ECFCD10300A82844070061E8EC0F2900F18F
S11328FC980051C09802FC030400306400B800FC3A
S113290CD10300A828A1B828A828440F0071FF619E
S113291CE3ECC02800A82AA1B82AF19800518098A9
S113292C02FC030400306400B800FCD10300305EE8
S113293C01B800FC6E2900A826A1B826A82404F02E
S113294CFFBDF2A826BDF0ADF246F071FF7177F130
S113295C61F3ECB9280030F401B800FC6E290010C6
S113296C2CD72004F6B802F6B802EC88290030E81B
S113297C03B800FCD10300A802A1B802A808BDF05A
S113298CA80246F071FF7177F161D8EC7A29001036
S113299C04D7200488089DF09F26E93026E9B80066
S11329ACE6B802FC861500ADF0BF24E91004D7AFDD
S11329BC49E9BDF044000061F8EC402A00F6BF4937
S11329CCE9AF4AE9BDF0A6F0ADF0BF4AE9BDF2A803
S11329DC04BDF0ADF2EAF061DD717BFACEFB03616C
S11329ECCDBDF215BDF0ADF0BF4AE9A806BDF2AFFE
S11329FC4AE9BDF0ADF246F061E3EC272A00C9F0D8
S1132A0C04FFADF0BDF4FAF48B9DF26AF208ADF05C
S1132A1CDAF48DF2480000EC402A00C9F004FFAD52
S1132A2CF0BDF4FAF48B9DF25AF2F7ADF0DAF48DB2
S1132A3CF2480000D72002AF48E9BDF04400006121
S1132A4CF8EC242B00F6BF48E9C9F000FFADF0BD4B
S1132A5CF2FAF28B9DF0315A9DF05AF00161F8ECC8
S1132A6CBC2A00C9F004FFADF0BDF4FAF48B9DF060
S1132A7C311A9DF05AF00161E8EC242B00C9F004E2
S1132A8CFFADF0BDF4FAF48B9DF25AF2FBADF0DA23
S1132A9CF48DF2480000E6BF0AE930E62BB800FCDE
S1132AACBC0700300500B800FC6E2900EC242B0098
S1132ABCC9F000FFADF0BDF2FAF28B9DF0316A9DC6
S1132ACCF05AF00161F8EC242B00C9F004FFADF0CE
S1132ADCBDF4FAF48B9DF0311A9DF05AF0014AF0D2
S1132AEC0161E8EC242B00C9F004FFADF0BDF4FA4D
S1132AFCF48B9DF25AF2FBADF0DAF48DF24800003F
S1132B0C300200BF0AE930ED2BB800FCBC070030E2
S1132B1C0500B800FC6E29001002D7292BCBF8DC79
S1132B2CFE410061CF34D8003600E961DF3600E99C
S1132B3C3004E927311E440000DD0EB161CF11A928
S1132B4CBBA5A5A7A761DFEFED61CF3604E9300083
S1132B5C0061DF3074E927311E440000DD0AB161E5
S1132B6CCFBBA7A761DFEFF161CFFC4B2300003093
S1132B7C0000C1C1C1FC5C2300EFFEA804BDF2BD82
S1132B8CF0EAF289D161F8ECAB2B00A6F0ADF014AD
S1132B9C89D161E8EC972B00ADF026F2BDF0D7C9D2
S1072BACF00000D75A
S1132BB054657374206D6F6465004E6F726D616C43
S1132BC0206D6F64650047617465206F70656E6980
S1132BD06E672E2E2E004761746520636C6F7369D7
S1132BE06E672E2E2E004F70656E656400436C6F09
S1132BF073656400556E6B6E6F776E00456D65721C
S10E2C0067656E63792073746F7000C9
S9032B29A8
