S00F0000546573745F4C43442E6D6F74A0
S1070000D212FFFF16
S1130004070F070F070F070F070F070F070F070F38
S1130014070F070F070F070F070F070F070F070F28
S1130024F00B1C0B070F070F070F070F070F070F22
S1130034070F070F070F070F070F070F070F070F08
S1130044070F070F070F070F070F070F070F070FF8
S1130054070F070F070F070F070F070F070F070FE8
S1130064070F070F070F070F070F070F070F070FD8
S10F0074070F070F070F070F070F070FF8
S10700C0EFFFE9045D
S10D00C4000000000000000000002E
S10700D8010001001E
S11300DCC9F0E2FFADF0BDF4FAF48B9DF25AF2EFE5
S11300ECADF0DAF48DF2480000C9F218FFA804BD93
S11300FCF0ADF2BDF4DAF4ADF0780000C9F0B20161
S113010CADF0BDF2DAF2E6780000D72002A806BD05
S113011CF0B800FCDC0000EC28010000C9F0E2FFA0
S113012CADF0BDF2FAF28B9DF0314A9DF05AF0011C
S113013C61F8EC270100FCA80E001002D7200688F9
S113014C0C314A9805880A9DF0980088059DF09812
S113015C02FC7A0100880C5C0F9805880A9DF098C3
S113016C0088059DF09802FC7A01001006D7200245
S113017C8806D161F8ECA20100C9F007FFADF0BD0F
S113018CF4FAF48B9DF26AF240ADF0DAF48DF24895
S113019C0000ECBB0100C9F007FFADF0BDF4FAF4AC
S11301AC8B9DF25AF2BFADF0DAF48DF2480000C91F
S11301BCF007FFADF0BDF4FAF48B9DF25AF2DFAD0B
S11301CCF0DAF48DF2480000C9F227FFC9F027FFDA
S11301DCADF0BDF4FAF48B9DF05AF0F0ADF2BDF431
S11301ECDAF48DF0480000C9F007FFADF0BDF2FA67
S11301FCF28B9DF05CF09DF188089DF05AF00F8D08
S113020CF16BF09DF09801C9F007FF88019DF2ADE8
S113021CF0BDF4DAF48DF2480000C9F007FFADF03C
S113022CBDF4FAF48B9DF26AF210ADF0DAF48DF2AF
S113023C480000000000000000C9F007FFADF0BD4D
S113024CF4FAF48B9DF25AF2EFADF0DAF48DF24835
S113025C00000000C9F007FFADF0BDF4FAF48B9D6B
S113026CF26AF220ADF0DAF48DF24800001002D7F5
S113027C2004C9F0E6FFADF0BDF4FAF48B9DF26AEC
S113028CF210ADF0DAF48DF248000030983AB80070
S113029CFC170100F1980051039802FC7A0100301C
S11302AC0410B800FC170100F1980051039802FCEB
S11302BC7A0100306400B800FC170100F198005179
S11302CC039802FC7A0100302800B800FC170100E6
S11302DCF1980051029802FC7A0100302800B80011
S11302ECFC170100F1980051289802FC49010030D8
S11302FC2800B800FC170100F19800510E9802FC7C
S113030C490100302800B800FC170100F19800E105
S113031C9802FC490100306806B800FC170100F192
S113032C980051069802FC490100302800B800FCE2
S113033C170100F1980051809802FC490100302803
S113034C00B800FC170100F1980051069802FC4912
S113035C0100302800B800FC1701001004D7C9F2C2
S113036C07FFC9F007FFADF0BDF4FAF48B9DF05A0A
S113037CF080ADF2BDF4DAF48DF048000000C9F061
S113038C07FFADF0BDF4FAF48B9DF26AF240ADF0C8
S113039CDAF48DF248000000C9F007FFADF0BDF4AB
S11303ACFAF48B9DF25AF2BFADF0DAF48DF24800F8
S11303BC0000C9F007FFADF0BDF4FAF48B9DF26AAE
S11303CCF220ADF0DAF48DF248000000C9F007FF1A
S11303DCADF0BDF4FAF48B9DF25AF2DFADF0DAF421
S11303EC8DF248000000C9F007FFADF0BDF4FAF43B
S11303FC8B9DF26AF210ADF0DAF48DF24800000035
S113040CC9F007FFADF0BDF4FAF48B9DF25AF2EF8C
S113041CADF0DAF48DF248000000C9F007FFADF03E
S113042CBDF4FAF48B9DF26AF201ADF0DAF48DF2BC
S113043C48000000C9F007FFADF0BDF4FAF48B9D41
S113044CF26AF202ADF0DAF48DF248000000C9F061
S113045C07FFADF0BDF4FAF48B9DF26AF204ADF033
S113046CDAF48DF248000000C9F007FFADF0BDF4DA
S113047CFAF48B9DF26AF208ADF0DAF48DF24800CE
S113048C0000C9F207FFC9F007FFADF0BDF4FAF4A0
S113049C8B9DF05AF080ADF2BDF4DAF48DF0480087
S11304AC00D72002C9F0A0FFADF0BDF2DAF2511072
S11304BC480000C9F0A1FFADF0BDF4FAF48B9DF235
S11304CC6AF280ADF0DAF48DF2480000C9F0A4FFB2
S11304DCADF0BDF4FAF48B9DF25AF2EFADF0DAF410
S11304EC8DF2480000C9F0A1FFADF0BDF4FAF48B15
S11304FC9DF25AF2BFADF0DAF48DF2480000F6B872
S113050C00EC1C050000A800BDF0A6F0ADF0B8008E
S113051CA800BDF044A00061E3EC110500C9F0F3A0
S113052C00ADF0BDF2DAF2F1480000C9F0A4FFAD61
S113053CF0BDF4FAF48B9DF25AF2BFADF0DAF48DFF
S113054CF2480000C9F0A1FFADF0BDF4FAF48B9DA4
S113055CF25AF2FEADF0DAF48DF24800001002D734
S113056CC9F007FFADF0BDF2DAF2F1480000C9F0B2
S113057C3000ADF0BDF2DAF2510C480000C9F03491
S113058C00ADF0BDF2DAF2E1480000C9F04000AD74
S113059CF0BDF2DAF25108480000C9F027FFADF0C3
S11305ACBDF2DAF25180480000D7C9F0F000ADF08A
S11305BCBDF4FAF48B9DF26AF204ADF0DAF48DF228
S11305CC48000000000000C9F02601ADF0BDF2DACD
S11305DCF2303300780000FCE80500D761EFC1610C
S11305ECCFC9E82401C9F62401ADF6BDF0FAF0AB8D
S11305FCBDF68DF66C0C9DF48DF76C009DF5DAE868
S113060CADF4780000C9F4E6FFADF4BDF2FAF28B58
S113061C9DF66AF601ADF4BDF0DAF08DF6480000F3
S113062CC9F4E2FFADF4BDF2FAF28B9DF65AF6FE74
S113063CADF4BDF0DAF08DF6480000C9F4E6FFAD78
S113064CF4BDF2FAF28B9DF66AF602ADF4BDF0DA63
S113065CF08DF6480000C9F4E2FFADF4BDF2FAF2F5
S113066C8B9DF65AF6FDADF4BDF0DAF08DF648002C
S113067C00C9F4E6FFADF4BDF2FAF28B9DF66AF60E
S113068C04ADF4BDF0DAF08DF6480000C9F4E2FFD5
S113069CADF4BDF2FAF28B9DF65AF6FBADF4BDF057
S11306ACDAF08DF6480000C9F4EEFFADF4BDF2FAB1
S11306BCF28B9DF66AF601ADF4BDF0DAF08DF648D6
S11306CC0000C9F4EAFFADF4BDF2FAF28B9DF66AB0
S11306DCF601ADF4BDF0DAF08DF6480000C9F4EE85
S11306ECFFADF4BDF2FAF28B9DF66AF602ADF4BDE1
S11306FCF0DAF08DF6480000C9F4EAFFADF4BDF26F
S113070CFAF28B9DF66AF602ADF4BDF0DAF08DF6D2
S113071C480000C9F41401ADF4BDF2DAF230220041
S113072C780000C9F41C01ADF4BDF0DAF030978008
S113073C780000C9F444FFADF4BDF2DAF23000CE17
S113074C780000C9F67000C9F47000ADF4BDF0FA7D
S113075CF08B9DF46AF404ADF6BDF2DAF28DF44834
S113076C0000C9F40E01ADF4BDF0DAF030070078E6
S113077C0000C9F41601ADF4BDF2DAF230220178AE
S113078C0000C9F41E01ADF4BDF0DAF030974078E6
S113079C0000C9F446FFADF4BDF2DAF23000CE78B5
S11307AC0000C9F62801C9F42801ADF4BDF0FAF033
S11307BCABBDF48DF46C049DF28DF56C009DF3AD22
S11307CCF6BDF4DAF4ADF2780000C9F43401C9F2E0
S11307DC3401ADF2BDF0FAF0ABBDF2ADF4BDF0DA1C
S11307ECF0ADF2780000C9F42A01C9F22A01ADF285
S11307FCBDF0FAF0ABBDF28DF26C049DF08DF36C90
S113080C009DF1ADF4BDF2DAF2ADF0780000C9F25E
S113081C6000C9F06000ADF0BDF4FAF48B9DF05AA1
S113082CF0F7ADF2BDF4DAF48DF0480000C9F22013
S113083CFFC9F020FFADF0BDF4FAF48B9DF06AF023
S113084C08ADF2BDF4DAF48DF0480000C9F2600092
S113085CC9F06000ADF0BDF4FAF48B9DF05AF0FBD6
S113086CADF2BDF4DAF48DF0480000C9F200FFC912
S113087CF000FFADF0BDF4FAF48B9DF06AF004AD1A
S113088CF2BDF4DAF48DF0480000C9F220FFC9F08F
S113089C20FFADF0BDF4FAF48B9DF05AF0FBADF2F1
S11308ACBDF4DAF48DF048000061EFC061CFD7617C
S11308BCEFC161CFC9E82801C9F62801ADF6BDF036
S11308CCFAF0ABBDF68DF66C049DF48DF76C009DBF
S11308DCF5DAE8ADF4780000C9F62A01C9F42A0166
S11308ECADF4BDF2FAF2ABBDF48DF46C049DF28D53
S11308FCF56C009DF3ADF6BDF4DAF4ADF2780000BE
S113090CC9F42201C9F22201ADF2BDF0FAF0ABBD7B
S113091CF28DF26C0C9DF08DF36C009DF1ADF4BD79
S113092CF2DAF2ADF0780000C9F0E2FFADF0BDF4FC
S113093CFAF48B9DF25AF2FEADF0DAF48DF2480023
S113094C00C9F0E2FFADF0BDF4FAF48B9DF25AF25B
S113095CFDADF0DAF48DF2480000C9F0E6FFADF01D
S113096CBDF4FAF48B9DF25AF2FEADF0DAF48DF28A
S113097C480000C9F0E6FFADF0BDF4FAF48B9DF22B
S113098C5AF2FDADF0DAF48DF248000061EFC0616B
S113099CCFD7C9F4E6FFADF4BDF0FAF08B9DF66A3F
S11309ACF601ADF4BDF2DAF28DF6480000C9F4E6B6
S11309BCFFADF4BDF0FAF08B9DF66AF602ADF4BD12
S11309CCF2DAF28DF6480000C9F62401C9F42401C8
S11309DCADF4BDF0FAF0ABBDF48DF46C0C9DF28D5E
S11309ECF56C009DF3ADF6BDF4DAF4ADF2780000CD
S11309FCC9F42A01C9F22A01ADF2BDF0FAF0ABBD7B
S1130A0CF28DF25CFB9DF08DF35CFF9DF1ADF4BDBA
S1130A1CF2DAF2ADF0780000C9F0E2FFADF0BDF40B
S1130A2CFAF48B9DF25AF2FEADF0DAF48DF2480032
S1130A3C00C9F0E2FFADF0BDF4FAF48B9DF25AF26A
S1130A4CFDADF0DAF48DF2480000D72002F6B800C0
S1130A5CA80844000061E8EC700A00308100B8007A
S1130A6CEC820A00F6BF34E9A808BDF0BF32E9A84D
S1130A7C06BDF0BF36E9A800BDF01002D72002F67F
S1130A8CB800A80844000061E8ECA20A0030810018
S1130A9CB800EC150B00A806BDF0BF38E9A808BDDA
S1130AACF0BF3AE9C9F0E6FFADF0BDF4FAF48B9D62
S1130ABCF26AF201ADF0DAF48DF2480000C9F244A6
S1130ACCFFAF38E9BDF0BDF4FAF48B9DF0ADF2BD87
S1130ADCF4DAF48DF0480000AF38E9BDF0A6F0ADBF
S1130AECF0BF38E9AF3AE9BDF0B6F0ADF0BF3AE982
S1130AFCC9F0E6FFADF0BDF4FAF48B9DF25AF2FEA8
S1130B0CADF0DAF48DF2480000A800BDF01002D765
S1130B1C61CFC1C3C5C761DFC1C3C5C761CF2004E1
S1130B2CC9F00601ADF0BDF2FAF2ABBDF08DF05C8C
S1130B3C079803C9F20E018803705100BDF0ADF2A1
S1130B4CBDF4DAF4ADF07800008803D161F8EC68F8
S1130B5C0B0088039DF09800FC5E0C00C9F046FF66
S1130B6CADF0BDF2FAF28B9DF09802AF32E9BDF212
S1130B7CAF34E9BDF0ADF246F061E3ECD30B00AF5A
S1130B8C36E9BDF088029DF2ADF0BDF4DAF48DF2D5
S1130B9C480000AF36E9BDF0A6F0ADF0BF36E9AFC2
S1130BAC34E9BDF0A6F0ADF0BF34E9AF32E9BDF2E3
S1130BBCAF34E9BDF0ADF246F061E8ECE00B00FCBB
S1130BCC550C00ECE00B008802705100BDF0B8002D
S1130BDCFC590C00100461DFC6C4C2C061CFC6C48A
S1130BECC2C061FC61CFC1C3C5C761DFC1C3C5C786
S1130BFC61CFAF3AE9BDF044000061F8EC430C005E
S1130C0CC9F244FFAF38E9BDF0BDF4FAF48B9DF0A2
S1130C1CADF2BDF4DAF48DF0480000AF38E9BDF064
S1130C2CA6F0ADF0BF38E9AF3AE9BDF0B6F0ADF0DF
S1130C3CBF3AE9EC470C00FC5A0C0061DFC6C4C295
S1130C4CC061CFC6C4C2C061FCE509E9D7D7E51DB4
S1130C5CE9D7D7C9F4F000ADF4BDF0FAF08B9DF6EA
S1130C6C6AF601ADF4BDF2DAF28DF6480000C9F46F
S1130C7CB601ADF4BDF0DAF0300400780000C9F42C
S1130C8CB401ADF4BDF2DAF2300F0A780000C9F405
S1130C9CE6FFADF4BDF0FAF08B9DF66AF610ADF4F8
S1130CACBDF2DAF28DF6480000C9F4E2FFADF4BDF2
S1130CBCF0FAF08B9DF65AF6EFADF4BDF2DAF28D44
S1130CCCF6480000C9F4E6FFADF4BDF0FAF08B9DD4
S1130CDCF66AF620ADF4BDF2DAF28DF6480000C9DE
S1130CECF4E2FFADF4BDF0FAF08B9DF65AF6DFADED
S1130CFCF4BDF2DAF28DF6480000C9F4E5FFADF468
S1130D0CBDF0FAF08B9DF66AF680ADF4BDF2DAF222
S1130D1C8DF6480000C9F4E1FFADF4BDF0FAF08B98
S1130D2C9DF65AF67FADF4BDF2DAF28DF64800006A
S1130D3CC9F4E6FFADF4BDF0FAF08B9DF66AF6400B
S1130D4CADF4BDF2DAF28DF6480000C9F4E2FFAD61
S1130D5CF4BDF0FAF08B9DF65AF6BFADF4BDF2DAA1
S1130D6CF28DF6480000C9F4E6FFADF4BDF0FAF0DC
S1130D7C8B9DF66AF680ADF4BDF2DAF28DF648007E
S1130D8C00C9F4E2FFADF4BDF0FAF08B9DF65AF60F
S1130D9C7FADF4BDF2DAF28DF6480000C9F4E6FF3B
S1130DACADF4BDF0FAF08B9DF66AF604ADF4BDF229
S1130DBCDAF28DF6480000C9F4E2FFADF4BDF0FAA6
S1130DCCF08B9DF65AF6FBADF4BDF2DAF28DF648D3
S1130DDC0000C9F49001ADF4BDF0DAF0F67800002F
S1130DECC9F418FFADF4BDF2DAF23017F67800004E
S1130DFCC9F6B801C9F4B801ADF4BDF0FAF0ABBD55
S1130E0CF48DF45CFE9DF28DF55CFF9DF3ADF6BDA7
S1130E1CF0DAF0ADF2780000C9F4BA01C9F2BA0103
S1130E2CADF2BDF0FAF0ABBDF28DF25CFE9DF08D2F
S1130E3CF35CFF9DF1ADF4BDF2DAF2ADF078000095
S1130E4CD7C9F4B201C9F2B201ADF2BDF0FAF0ABFC
S1130E5CBDF28DF26C019DF08DF36C009DF1ADF43F
S1130E6CBDF2DAF2ADF0780000C9F0E2FFADF0BDEE
S1130E7CF4FAF48B9DF25AF2EFADF0DAF48DF248F9
S1130E8C0000C9F0E6FFADF0BDF4FAF48B9DF25A04
S1130E9CF2EFADF0DAF48DF2480000D7C9F4B401E6
S1130EACC9F2B401ADF2BDF0FAF0ABBDF28DF26C47
S1130EBC019DF08DF36C009DF1ADF4BDF2DAF2AD51
S1130ECCF0780000C9F0E6FFADF0BDF4FAF48B9DA8
S1130EDCF26AF210ADF0DAF48DF2480000C9F0E2D7
S1130EECFFADF0BDF4FAF48B9DF25AF2EFADF0DAEB
S1130EFCF48DF2480000D7E53CE9D761CFC1C3C5F6
S1130F0CC7C6C4C2C061FCC9F07700ADF0BDF2DA4B
S1130F1CF2F1480000C9F07900ADF0BDF2DAF2F15B
S1130F2C480000FCAE0400FC6C0500FCB60500FC9B
S1130F3C5F0C00C9F07800ADF0BDF2DAF2F14800B4
S1130F4C00D72002717BFAFC130F00E6B800BDF049
S1130F5C1002D72010FC60110051729F0AE9300A6C
S1130F6CE9B800E6B802FC570A00ADF0BF1EE98FE1
S1130F7C09E99DF0D4F061F8EC4C1100F509E9F69F
S1130F8CBF02E98F0AE99DF04AF08161E8ECBF0FDA
S1130F9C00E6BF04E9F6BF00E951819F20E9302047
S1130FACE9B800E6B802FC890A00ADF0BF1EE9EC12
S1130FBC3B11008F0AE99DF04AF08061E8ECEF0FD9
S1130FCC00F6BF04E9E6BF00E951809F20E9302018
S1130FDCE9B800E6B802FC890A00ADF0BF1EE9ECE2
S1130FEC3B1100AF06E9BDF044270071FF61F3EC3F
S1130FFC2C10008F0AE99DF04AF07E61F3EC2C1062
S113100C00AF06E9BDF08F0AE99DF2DAF0483DE93C
S113101CAF06E9BDF0A6F0ADF0BF06E9EC3B11005C
S113102CAF04E9BDF044010061E8EC3B11008F0A08
S113103CE99DF04AF0F461E8EC3B110051F49F2077
S113104CE93020E9B800E6B802FC890A00ADF0BF2B
S113105C1EE9FC7C0200F6B80EF6B80CF6B80A30A1
S113106C1000B806E6B804AF06E9BDF0440F0071F1
S113107CFF61E3EC911000AF06E9BDF004F1FFB899
S113108C08EC941000E6B808F6B80CEC241100F641
S113109CB80EECE91000A80A16A80E07BDF0043D22
S11310ACE9168B9DF0E198008DF09802FC49010043
S11310BC30B20CB800FC170100A80E44070061E81C
S11310CCECE41000F1980051C09802FC4901003086
S11310DC6400B800FC170100A80EA1B80EAF06E915
S11310ECBDF0A80E46F071FF7177F161D8ECA21037
S11310FC00A80AA1B80AF1980051809802FC490191
S113110C00306400B800FC170100305E01B800FC2C
S113111CA01200A80CA1B80CA808BDF0A80C46F0AD
S113112C71FF7177F161D8EC9B1000F6BF06E930C2
S113113C0AE9B800E6B802FC570A00ADF0BF1EE994
S113114C8F1DE99DF0D4F061F8EC5C1100F51DE9FC
S113115CEC7B0F002004717AFAFCB60500FCE80560
S113116C00FCBB0800FC5F0C00FC4D0E00F509E90B
S113117CF51DE951809F20E93020E9B800E6B8025A
S113118CFC890A00ADF0BF1EE9008F1DE99DF0D467
S113119CF061F8EC961100F51DE9FC7C0200FCB53D
S11311AC1100FC7C02001004D72030F6B82EF6B8DF
S11311BC2CF6B82AAEF8BDF2040700BDF0C9F40051
S11311CC20C9F22100B800ADF4B802ADF2B804FCA9
S11311DC301300302100B828F6B82AEC7A1200F645
S11311ECB82CEC461200A82E16A82C07BDF0AEF8AD
S11311FCBDF4040700BDF206F0BDF0BDF2FAF28BAB
S113120C9DF0E198008DF09802FC490100306400D7
S113121CB800FC170100A82C44070061E8EC41124B
S113122C00F1980051C09802FC490100306400B8E8
S113123C00FC170100A82CA1B82CA82C440F007199
S113124CFF61E3ECF21100A82EA1B82EF198005125
S113125C809802FC490100306400B800FC170100BE
S113126C305E01B800FCA01200A82AA1B82AA82854
S113127C04F0FFBDF2A82ABDF0ADF246F071FF7187
S113128C77F161F3ECEB110030F401B800FCA0121F
S113129C001030D72004F6B802F6B802ECBA1200EB
S11312AC30E803B800FC170100A802A1B802A80892
S11312BCBDF0A80246F071FF7177F161D8ECAC1265
S11312CC001004D7D212CBF8DCFE410061CF34D825
S11312DC003600E961DF3600E93004E927311E44A9
S11312EC0000DD0EB161CF11A9BBA5A5A7A761DFD5
S11312FCEFED61CF3604E930000061DF3066E92799
S113130C311E440000DD0AB161CFBBA7A761DFEF3A
S113131CF161CFFC4E0F0000300000C1C1C1FC5F75
S113132C0F00EFFE61EFC161CFA808BDF4A80ABDA0
S113133CF0A806BDF2ADF0B1BDF6ADF0440000610D
S113134CF8EC6A1300ADF2BDF0ADF4DAF0168B488C
S113135C0000A6F4A6F2ADF6BDF0EC411300A8060D
S10B136CBDF061EFC061CFD7B1
S113200020202020202020202020202020202020CC
S11320104865796E73204B20313835353234363388
S104202000BB
S90312D218
