S017000052656D6F7465436F6E74726F6C6C65722E6D6F74DA
S10700002D0CFFFFC1
S1130004C50B2B0B9F03AB032B0B2B0B2B0B2B0BBA
S11300142B0B2B0B2B0B2B0B2B0B2B0B830AC40A39
S11300242B0B050B2B0B2B0B2B0B2B0B2B0B2B0B3E
S11300342B0B2B0B2B0B2B0B2B0B2B0B2B0B2B0B08
S11300442B0B2B0B2B0B2B0B2B0B2B0B2B0B2B0BF8
S11300542B0B2B0B2B0B2B0B2B0B2B0B2B0B2B0BE8
S11300642B0B2B0B2B0B2B0B2B0B2B0B2B0B2B0BD8
S10F00742B0B2B0B2B0B2B0B2B0B2B0B38
S10700C0FFFFE9044D
S10D00C4000000000000000000002E
S11300CEC9F0A0FFADF0BDF2DAF2F1480000C9F0BC
S11300DEA1FFADF0BDF4FAF48B9DF26AF280ADF09F
S11300EEDAF48DF2480000C9F0A4FFADF0BDF4FAC5
S11300FEF48B9DF25AF2EFADF0DAF48DF248000073
S113010EC9F0F300ADF0BDF2DAF2F1480000C9F027
S113011EA1FFADF0BDF4FAF48B9DF25AF2FEADF0F0
S113012EDAF48DF2480000D72002C9F0A8FFADF032
S113013EBDF2FAF28B9DF098011002D7C9F0E4FFDC
S113014EADF0BDF4FAF48B9DF26AF204ADF0DAF47C
S113015E8DF2480000C9F0E0FFADF0BDF4FAF48B67
S113016E9DF25AF2FBADF0DAF48DF2480000C9F0BC
S113017EE4FFADF0BDF4FAF48B9DF26AF208ADF033
S113018EDAF48DF2480000C9F0E0FFADF0BDF4FAE8
S113019EF48B9DF25AF2F7ADF0DAF48DF2480000CA
S11301AEC9F0E4FFADF0BDF4FAF48B9DF26AF210DF
S11301BEADF0DAF48DF2480000C9F0E0FFADF0BD09
S11301CEF4FAF48B9DF25AF2EFADF0DAF48DF248B4
S11301DE0000C9F0E4FFADF0BDF4FAF48B9DF26AB1
S11301EEF220ADF0DAF48DF2480000C9F0E0FFAD74
S11301FEF0BDF4FAF48B9DF25AF2DFADF0DAF48D21
S113020EF2480000C9F0ECFFADF0BDF4FAF48B9D9A
S113021EF26AF204ADF0DAF48DF2480000C9F0E8A7
S113022EFFADF0BDF4FAF48B9DF26AF204ADF0DA90
S113023EF48DF2480000C9F0ECFFADF0BDF4FAF411
S113024E8B9DF26AF208ADF0DAF48DF2480000C923
S113025EF0E8FFADF0BDF4FAF48B9DF26AF208AD4E
S113026EF0DAF48DF2480000C9F039FFADF0BDF2BA
S113027EDAF25103480000C9F038FFADF0BDF4DAEC
S113028EF45103480000C9F26400C9F06400ADF0F3
S113029EBDF4FAF48B9DF05AF0FDADF2BDF4DAF430
S11302AE8DF0480000C9F224FFC9F024FFADF0BD63
S11302BEF4FAF48B9DF06AF002ADF2BDF4DAF48D2B
S11302CEF0480000D7C9F0E0FFADF0BDF4FAF48BAE
S11302DE9DF25AF2FBADF0DAF48DF2480000C9F04B
S11302EEE4FFADF0BDF4FAF48B9DF25AF2FBADF0DF
S11302FEDAF48DF2480000D7C9F0E4FFADF0BDF496
S113030EFAF48B9DF26AF204ADF0DAF48DF2480041
S113031E00C9F0E0FFADF0BDF4FAF48B9DF25AF291
S113032EFBADF0DAF48DF2480000D7C9F0E0FFAD72
S113033EF0BDF4FAF48B9DF25AF2F7ADF0DAF48DC7
S113034EF2480000C9F0E4FFADF0BDF4FAF48B9D61
S113035EF25AF2F7ADF0DAF48DF2480000D7C9F094
S113036EE4FFADF0BDF4FAF48B9DF26AF208ADF041
S113037EDAF48DF2480000C9F0E0FFADF0BDF4FAF6
S113038EF48B9DF25AF2F7ADF0DAF48DF2480000D8
S113039ED761CFC1C3C5C7C6C4C2C061FC61CFC1DA
S11303AEC3C5C7C6C4C2C061FCC9F001FFADF0BD70
S11303BEF2DAF2F1480000C9F03400ADF0BDF2DA21
S11303CEF2E1480000C9F06100ADF0BDF2DAF2517D
S11303DEFE480000C9F021FFADF0BDF2DAF251FE85
S11303EE480000D761EFC1C3C561CF200AC9F2F03E
S11303FE00ADF2BDF4FAF48B9DF06AF001ADF2DAC1
S113040EF48DF0480000C9F0B601ADF0BDF2DAF299
S113041EF6780000C9F0B401ADF0BDF4DAF4300F93
S113042E0A780000C9F2E5FFADF2BDF4FAF48B9D33
S113043EF06AF040ADF2DAF48DF0480000C9F2E152
S113044EFFADF2BDF4FAF48B9DF05AF0BFADF2DAC3
S113045EF48DF0480000C9F2E5FFADF2BDF4FAF4F4
S113046E8B9DF06AF080ADF2DAF48DF0480000C98D
S113047EF2E1FFADF2BDF4FAF48B9DF05AF07FADCC
S113048EF2DAF48DF0480000C9F2E5FFADF2BDF4E6
S113049EFAF48B9DF06AF008ADF2DAF48DF04800B0
S11304AE00C9F2E1FFADF2BDF4FAF48B9DF05AF0FF
S11304BEF7ADF2DAF48DF0480000C9F2E6FFADF2C2
S11304CEBDF4FAF48B9DF06AF001ADF2DAF48DF01E
S11304DE480000C9F2E2FFADF2BDF4FAF48B9DF0D0
S11304EE5AF0FEADF2DAF48DF0480000C9F2E6FFE0
S11304FEADF2BDF4FAF48B9DF06AF002ADF2DAF4CB
S113050E8DF0480000C9F2E2FFADF2BDF4FAF48BAF
S113051E9DF05AF0FDADF2DAF48DF0480000C9F208
S113052EE5FFADF2BDF4FAF48B9DF06AF010ADF276
S113053EDAF48DF0480000C9F2E1FFADF2BDF4FA31
S113054EF48B9DF05AF0EFADF2DAF48DF048000022
S113055EC9F2EDFFADF2BDF4FAF48B9DF06AF040F2
S113056EADF2DAF48DF0480000C9F2E9FFADF2BD48
S113057EF4FAF48B9DF06AF040ADF2DAF48DF048A3
S113058E0000C9F2EDFFADF2BDF4FAF48B9DF06AF2
S113059EF080ADF2DAF48DF0480000C9F2E9FFAD57
S11305AEF2BDF4FAF48B9DF06AF080ADF2DAF48DBC
S11305BEF0480000C9F2EEFFADF2BDF4FAF48B9DE3
S11305CEF06AF002ADF2DAF48DF0480000C9F2EAF6
S11305DEFFADF2BDF4FAF48B9DF06AF002ADF2DADF
S11305EEF48DF0480000C9F09001ADF0BDF2DAF2DE
S11305FEE6780000C9F018FFADF0BDF4DAF430A4CB
S113060E01780000C9F2B801C9F0B801ADF0BDF42B
S113061EFAF4ABBDF08DF05CFE9DF48DF15CFF9DA4
S113062EF5ADF2BDF0DAF0ADF4780000C9F2BA011E
S113063EC9F0BA01ADF0BDF4FAF4ABBDF08DF05CC7
S113064EFE9DF68DF15CFF9DF7ADF2BDF0DAF0ADD7
S113065EF6780000C9F09201ADF0BDF2DAF230097D
S113066E04780000C9F01AFFADF0BDF4DAF4306975
S113067E00780000C9F2BE01C9F0BE01ADF0BDF4B0
S113068EFAF4ABBDF08DF06C029DE88DF16C009D1B
S113069EE9ADF2BDF0DAF0ADE8780000C9F2BC01C4
S11306AEC9F0BC01ADF0BDF4FAF4ABBDF08DF05C55
S11306BEFD9DEA8DF15CFF9DEBADF2BDF0DAF0AD80
S11306CEEA780000C9F2B801C9F0B801ADF0BDF482
S11306DEFAF4ABBDF08DF05CFD98088DF15CFF98DB
S11306EE09A808BDF4ADF2BDF0DAF0ADF47800005F
S11306FEC9F2BA01C9F0BA01ADF0BDF4FAF4ABBD5A
S113070EF08DF06C0298068DF16C009807A806BD6A
S113071EF4ADF2BDF0DAF0ADF4780000C9F0960154
S113072EADF0BDF2DAF2F6780000C9F066FFADF076
S113073EBDF4DAF4308F37780000C9F2BE01C9F087
S113074EBE01ADF0BDF4FAF4ABBDF08DF05CF798DC
S113075E048DF15CFF9805A804BDF4ADF2BDF0DA8A
S113076EF0ADF4780000C9F2BC01C9F0BC01ADF0E3
S113077EBDF4FAF4ABBDF08DF05CF798028DF15C2C
S113078EFF9803A802BDF4ADF2BDF0DAF0ADF47833
S113079E0000C9F2B801C9F0B801ADF0BDF4FAF425
S11307AEABBDF08DF05CF798008DF15CFF9801A85D
S11307BE00BDF4ADF2BDF0DAF0ADF4780000C9F28C
S11307CEBA01C9F0BA01ADF0BDF4FAF4ABBDF08DC7
S11307DEF05CF79DEC8DF15CFF9DEDADF2BDF0DAB2
S11307EEF0ADEC780000C9F26100C9F06100ADF023
S11307FEBDF4FAF48B9DF05AF0EFADF2BDF4DAF4D9
S113080E8DF0480000C9F201FFC9F001FFADF0BD43
S113081EF4FAF48B9DF05AF0EFADF2BDF4DAF48DE8
S113082EF0480000C9F221FFC9F021FFADF0BDF47C
S113083EFAF48B9DF05AF0EFADF2BDF4DAF48DF0CC
S113084E480000100A61EFC4C2C061CFD7C9F4E1F9
S113085EFFADF4BDF0FAF08B9DF65AF6BFADF4BDC4
S113086EF2DAF28DF6480000C9F4E5FFADF4BDF0FE
S113087EFAF08B9DF65AF6BFADF4BDF2DAF28DF6B0
S113088E480000C9F4E1FFADF4BDF0FAF08B9DF61B
S113089E5AF67FADF4BDF2DAF28DF6480000C9F4D3
S11308AEE5FFADF4BDF0FAF08B9DF65AF67FADF48C
S11308BEBDF2DAF28DF6480000C9F6BA01C9F4BAEF
S11308CE01ADF4BDF0FAF0ABBDF48DF46C029DF203
S11308DE8DF56C009DF3ADF6BDF0DAF0ADF2780057
S11308EE00C9F4B201C9F2B201ADF2BDF0FAF0AB37
S11308FEBDF28DF26C039DF08DF36C009DF1ADF4A1
S113090EBDF2DAF2ADF0780000D7C9F6B401C9F43D
S113091EB401ADF4BDF0FAF0ABBDF48DF46C039DEF
S113092EF28DF56C009DF3ADF6BDF4DAF4ADF2780C
S113093E0000C9F4BA01C9F2BA01ADF2BDF0FAF081
S113094EABBDF28DF25CFD9DF08DF35CFF9DF1ADC0
S113095EF4BDF2DAF2ADF0780000C9F0E5FFADF0C7
S113096EBDF4FAF48B9DF26AF240ADF0DAF48DF236
S113097E480000C9F0E1FFADF0BDF4FAF48B9DF22E
S113098E5AF2BFADF0DAF48DF2480000C9F0E5FF7B
S113099EADF0BDF4FAF48B9DF26AF280ADF0DAF4A8
S11309AE8DF2480000C9F0E1FFADF0BDF4FAF48B0E
S11309BE9DF25AF27FADF0DAF48DF2480000D7C9F9
S11309CEF2E2FFADF2BDF0FAF08B9DF45AF4FDADF8
S11309DEF2DAF08DF4480000C9F2E6FFADF2BDF094
S11309EEFAF08B9DF45AF4FDADF2DAF08DF4480072
S11309FE00C9F4B201C9F2B201ADF2BDF0FAF0AB26
S1130A0EBDF28DF26C089DF08DF36C009DF1ADF48A
S1130A1EBDF2DAF2ADF0780000D7C9F4B401C9F230
S1130A2EB401ADF2BDF0FAF0ABBDF28DF26C089DDF
S1130A3EF08DF36C009DF1ADF4BDF2DAF2ADF07809
S1130A4E0000C9F0E6FFADF0BDF4FAF48B9DF26A36
S1130A5EF202ADF0DAF48DF2480000C9F0E2FFAD17
S1130A6EF0BDF4FAF48B9DF25AF2FDADF0DAF48D8A
S1130A7EF2480000D761CFC1C3C5C761DFC1C3C58A
S1130A8E61CFAF00F9BDF044000061F8ECB70A0085
S1130A9EC9F001FFADF0BDF4FAF48B9DF26AF201D8
S1130AAEADF0DAF48DF248000061DFC4C2C061CF4C
S1130ABEC6C4C2C061FC61CFC1C3C5C761DFC1C3B7
S1130ACEC561CFAF00F9BDF044000061F8ECF80A3F
S1130ADE00C9F001FFADF0BDF4FAF48B9DF25AF2A9
S1130AEEFEADF0DAF48DF248000061DFC4C2C061DD
S1130AFECFC6C4C2C061FC61CFC1C3C5C761DFC16B
S1130B0E61CFAF00F9BDF07C00087C0108BDF0BFD9
S1130B1E00F961DFC061CFC6C4C2C061FC61CFC140
S1130B2EC3C5C7C6C4C2C061FCC9F0E4FFADF0BD05
S1130B3EF4FAF48B9DF26AF201ADF0DAF48DF24818
S1130B4E0000C9F0E0FFADF0BDF4FAF48B9DF25A4B
S1130B5EF2FEADF0DAF48DF2480000C9F0ECFFAD10
S1130B6EF0BDF4FAF48B9DF26AF201ADF0DAF48D75
S1130B7EF2480000C9F0E8FFADF0BDF4FAF48B9D25
S1130B8EF26AF201ADF0DAF48DF2480000C9F0E435
S1130B9EFFADF0BDF4FAF48B9DF25AF2FEADF0DA2D
S1130BAEF48DF2480000D7C9F0ABFFADF0BDF2DA18
S1130BBEF251AC480000D761CFC1C3C5C7C6C4C289
S1130BCEC061FCC9F07700ADF0BDF2DAF2F1480075
S1130BDE00FC360100FCCE0000FCB70300FCF2035F
S1130BEE00FC370B00FC4A0100C9F07800ADF0BDE3
S1130BFEF2DAF2F1480000D72002717BFAFCD10B35
S1130C0E00E6B800BDF01002D7FC270C00FC5B0810
S1130C1E00FCCD0900EC230C00717AFAD72D0CCB15
S1130C2EF800FE410061CF348C0C3600F961DF36DA
S1130C3E00F93000F927311E440000DD0EB161CFFA
S1130C4E11A9BBA5A5A7A761DFEFED61CF3600F90A
S1130C5E30000061DF3002F927311E440000DD0A46
S1130C6EB161CFBBA7A761DFEFF161CFFC060C002A
S1110C7E00300000C1C1C1FC170C00EFFE00E5
S9030C2DC3
